:100000000C942A000C9447000C9447000C94470071
:100010000C9447000C9447000C9447000C94470044
:100020000C9447000C9447000C9447000C94470034
:100030000C9447000C9447000C9447000C94470024
:100040000C9447000C9447000C9447000C94470014
:100050000C94470011241FBECFE5D8E0DEBFCDBF12
:1000600010E0A0E6B0E0EAEFF2E002C005900D92E9
:10007000AC36B107D9F721E0ACE6B0E001C01D9283
:10008000A633B207E1F70E9433010C947B010C9474
:1000900000009BB3282F207F9F70922B9BBBDA9888
:1000A000DB9AE7ECF0E03197F1F700C00000DB9855
:1000B000EFE1F3E03197F1F700C000002BB3F0E17E
:1000C0008F9FC0011124922F9F70892B8BBBDB9ACD
:1000D00087EC90E00197F1F700C00000DB980895ED
:1000E0009BB3282F207F9F70922B9BBBDA9ADB9AC1
:1000F000E7ECF0E03197F1F700C00000DB98EFE3A8
:10010000FFE13197F1F700C000002BB3F0E18F9FC2
:10011000C0011124922F9F70892B8BBBDB9A8FE338
:100120009FE10197F1F700C00000DB9808958CEF84
:100130008ABBDB982FEF83EC99E021508040904000
:10014000E1F700C0000083E30E9449002FEF89EF30
:1001500090E0215080409040E1F700C0000082E331
:100160000E9449002FEF89EF90E02150804090409D
:10017000E1F700C0000088E20E9449002FEF89EFFC
:1001800090E0215080409040E1F700C000008EE0F8
:100190000E9449002FEF89EF90E02150804090406D
:1001A000E1F700C0000081E00E9449002FEF89EFD5
:1001B00090E0215080409040E1F700C00000089599
:1001C0001F93CF93DF93EC018881882381F010E0A7
:1001D0000E9470001F5F8FE19EE40197F1F700C05D
:1001E0000000FE01E10FF11D80818111F1CFDF914F
:1001F000CF911F91089588E98AB986E880BD87E686
:1002000089B908955D9BFECF8CB90895CF93DF9394
:10021000C82FDDEC8D9FD12D1124D695D695D6957E
:100220008D2F805D0E9402018FE39CE90197F1F719
:1002300000C00000DD0F8D2F880F880FD80F8C2F86
:100240008D1B805D0E940201DF91CF91089587E8A8
:1002500086B980EE87B9369A349BFECF85B18093FC
:100260006C0016B808950E9497008CE00E94490027
:1002700080E690E00E94E0002FEF87EA91E62150AF
:1002800080409040E1F700C000000E94FB002FEF8B
:1002900089EF90E0215080409040E1F700C00000DD
:1002A0002FEF89EF90E0215080409040E1F700C0AF
:1002B00000000E9427012FEF83ED90E32150804042
:1002C0009040E1F700C0000080916C000E940601A0
:1002D0008FE39CE90197F1F700C000008FED0E94C9
:1002E00002018FE39CE90197F1F700C0000083E46D
:0A02F0000E940201DECFF894FFCF58
:0C02FA005452414E534D4954544552009B
:00000001FF
