S01900005862656520525820696E746572727570742E73726563B0
S11300000C942A000C9447000C9447000C9447006D
S11300100C9447000C9447000C9447000C94470040
S11300200C9447000C9447000C9447000C94470030
S11300300C9447000C9463020C9447000C94470002
S11300400C9447000C9447000C9447000C94470010
S11300500C94470011241FBECFE5D8E0DEBFCDBF0E
S113006010E0A0E6B0E0EEE6F5E002C005900D92E7
S1130070AC38B107D9F720E0ACE8B0E001C01D927C
S1130080A73AB207E1F70E94C5010C94B5020C949B
S113009000009BB3282F207F9F70922B9BBBDA9884
S11300A0DB9AE7ECF0E03197F1F700C00000DB9851
S11300B0EFE1F3E03197F1F700C000002BB3F0E17A
S11300C08F9FC0011124922F9F70892B8BBBDB9AC9
S11300D087EC90E00197F1F700C00000DB980895E9
S11300E09BB3282F207F9F70922B9BBBDA9ADB9ABD
S11300F0E7ECF0E03197F1F700C00000DB98EFE3A4
S1130100FFE13197F1F700C000002BB3F0E18F9FBE
S1130110C0011124922F9F70892B8BBBDB9A8FE334
S11301209FE10197F1F700C00000DB9808958CEF80
S11301308ABBDB982FEF83EC99E0215080409040FC
S1130140E1F700C0000083E30E9449002FEF89EF2C
S113015090E0215080409040E1F700C0000082E32D
S11301600E9449002FEF89EF90E021508040904099
S1130170E1F700C0000088E20E9449002FEF89EFF8
S113018090E0215080409040E1F700C000008EE0F4
S11301900E9449002FEF89EF90E021508040904069
S11301A0E1F700C0000081E00E9449002FEF89EFD1
S11301B090E0215080409040E1F700C00000089595
S11301C081E00E9449008FE39FE10197F1F700C0AD
S11301D0000008951F93CF93DF93EC018881882357
S11301E081F010E00E9470001F5F8FE19EE4019790
S11301F0F1F700C00000FE01E10FF11D80818111C3
S1130200F1CFDF91CF911F910895813029F4862F8A
S113021081580E9449000895823021F4862F815428
S11302200E94490008950F931F93CF93DF938C018D
S11302309C013695279536952795ABE7B4E10E9446
S1130240A902EC01D695C7958C2F805D0E947000A1
S113025024E62C9FC0012D9F900D1124081B190B1F
S11302609801ADECBCEC0E94A902EC01D695C795AF
S1130270D695C795D695C7958C2F805D0E94700042
S1130280CE01880F991FCC0FDD1FCC0FDD1FCC0FC3
S1130290DD1FC80FD91FC8018C1B9D0B805D0E94F8
S11302A07000DF91CF911F910F9108951BB888E9D9
S11302B08AB986E880BD89E189B908955D9BFECF3E
S11302C08CB908951F93CF93DF93EC018881882321
S11302D081F010E00E945E011F5F8FE19EE40197B0
S11302E0F1F700C00000FE01E10FF11D80818111D2
S11302F0F1CFDF91CF911F910895CF93DF93C82F52
S1130300DDEC8D9FD12D1124D695D695D6958D2FC4
S1130310805D0E945E018FE39CE90197F1F700C0C4
S11303200000DD0F8D2F880F880FD80F8C2F8D1BA9
S1130330805D0E945E01DF91CF9108951816190621
S11303404CF4E0E9F0E08E0F9F1F20E22193E817C0
S1130350F907E1F7089587E886B980EE87B9369AF8
S1130360349BFECF85B180938F0090E00E941301EF
S1130370089587E886B980EE87B9369A349BFECF14
S113038085B180938E0016B808950E9497008CE082
S11303900E94490080E690E00E94EA000E94560113
S11303A08FE39CE90197F1F700C0000081E790E03A
S11303B00E9462010E94E0000E94AB019FEFE9E607
S11303C0F8E19150E040F040E1F700C0000078947B
S11303D0C0E9D0E001E910E00F2EF1E4DF2EF02DAA
S11303E0E12C0E94E00080918C0090918D00049794
S11303F0C4F30E94E00087E790E00E94EA0061E015
S113040082E00E94050180918C0090918D00181665
S113041019069CF480E090E0FE2CFC01E057FF4FAD
S113042080810E947000F3948F2D90E020918C00C5
S113043030918D008217930784F38881883671F593
S1130440F8018081893651F50E94B901D092A40047
S1130450FFEF23ED80E3F15020408040E1F700C03E
S1130460000080918E000E947D01EFE3FCE931974A
S1130470F1F700C0000080E20E945E018091A400B8
S11304800E947D018FE39CE90197F1F700C0000011
S11304908AE00E945E018DE00E945E019FEFE3ED21
S11304A0F0E39150E040F040E1F700C0000080919B
S11304B08C0090918D000E949E0110928D001092EC
S11304C08C0078948ECF1F920F920FB60F92112446
S11304D02F933F934F935F936F937F938F939F9348
S11304E0AF93BF93EF93FF938CB18093A50088E8FB
S11304F090E00E94EA002FEF83ED90E321508040CA
S11305009040E1F700C0000080918C0090918D0034
S11305108430910564F4FC01E057FF4F2091A5005D
S11305202083019690938D0080938C0001C0F894F1
S1130530FF91EF91BF91AF919F918F917F916F91B7
S11305405F914F913F912F910F900FBE0F901F908D
S11305501895A29FB001B39FC001A39F01D0B29F81
S1110560700D811D1124911D0895F894FFCF94
S113056E5468697320697320524543454956455270
S113057E0068656C6C6F004461746120526563653C
S10F058E69766564212121006869000081
S9030000FC
